{
  "contractName": "Calculator",
  "abi": [
    {
      "anonymous": false,
      "inputs": [
        {
          "indexed": false,
          "internalType": "string",
          "name": "operation",
          "type": "string"
        },
        {
          "indexed": false,
          "internalType": "int256",
          "name": "a",
          "type": "int256"
        },
        {
          "indexed": false,
          "internalType": "int256",
          "name": "b",
          "type": "int256"
        },
        {
          "indexed": false,
          "internalType": "int256",
          "name": "result",
          "type": "int256"
        }
      ],
      "name": "Calculated",
      "type": "event"
    },
    {
      "inputs": [],
      "name": "lastResult",
      "outputs": [
        {
          "internalType": "int256",
          "name": "",
          "type": "int256"
        }
      ],
      "stateMutability": "view",
      "type": "function",
      "constant": true
    },
    {
      "inputs": [
        {
          "internalType": "int256",
          "name": "a",
          "type": "int256"
        },
        {
          "internalType": "int256",
          "name": "b",
          "type": "int256"
        }
      ],
      "name": "add",
      "outputs": [
        {
          "internalType": "int256",
          "name": "",
          "type": "int256"
        }
      ],
      "stateMutability": "nonpayable",
      "type": "function"
    },
    {
      "inputs": [
        {
          "internalType": "int256",
          "name": "a",
          "type": "int256"
        },
        {
          "internalType": "int256",
          "name": "b",
          "type": "int256"
        }
      ],
      "name": "subtract",
      "outputs": [
        {
          "internalType": "int256",
          "name": "",
          "type": "int256"
        }
      ],
      "stateMutability": "nonpayable",
      "type": "function"
    },
    {
      "inputs": [
        {
          "internalType": "int256",
          "name": "a",
          "type": "int256"
        },
        {
          "internalType": "int256",
          "name": "b",
          "type": "int256"
        }
      ],
      "name": "multiply",
      "outputs": [
        {
          "internalType": "int256",
          "name": "",
          "type": "int256"
        }
      ],
      "stateMutability": "nonpayable",
      "type": "function"
    },
    {
      "inputs": [
        {
          "internalType": "int256",
          "name": "a",
          "type": "int256"
        },
        {
          "internalType": "int256",
          "name": "b",
          "type": "int256"
        }
      ],
      "name": "divide",
      "outputs": [
        {
          "internalType": "int256",
          "name": "",
          "type": "int256"
        }
      ],
      "stateMutability": "nonpayable",
      "type": "function"
    }
  ],
  "bytecode": "0x608060405234801561000f575f80fd5b5061082a8061001d5f395ff3fe608060405234801561000f575f80fd5b5060043610610055575f3560e01c80633c4308a814610059578063a5f3c23b14610089578063abcc11d8146100b9578063b93ea812146100d7578063f598423614610107575b5f80fd5b610073600480360381019061006e9190610315565b610137565b6040516100809190610362565b60405180910390f35b6100a3600480360381019061009e9190610315565b61018f565b6040516100b09190610362565b60405180910390f35b6100c16101e7565b6040516100ce9190610362565b60405180910390f35b6100f160048036038101906100ec9190610315565b6101ec565b6040516100fe9190610362565b60405180910390f35b610121600480360381019061011c9190610315565b610244565b60405161012e9190610362565b60405180910390f35b5f818361014491906103a8565b5f819055507f4ac5ef9858742e1bb8114f1bc0e845f176d11377b95cf669d47bb7fd0e15ca2383835f5460405161017d93929190610478565b60405180910390a15f54905092915050565b5f818361019c91906104c0565b5f819055507f4ac5ef9858742e1bb8114f1bc0e845f176d11377b95cf669d47bb7fd0e15ca2383835f546040516101d59392919061054b565b60405180910390a15f54905092915050565b5f5481565b5f81836101f99190610593565b5f819055507f4ac5ef9858742e1bb8114f1bc0e845f176d11377b95cf669d47bb7fd0e15ca2383835f546040516102329392919061061d565b60405180910390a15f54905092915050565b5f808203610287576040517f08c379a000000000000000000000000000000000000000000000000000000000815260040161027e906106af565b60405180910390fd5b818361029391906106fa565b5f819055507f4ac5ef9858742e1bb8114f1bc0e845f176d11377b95cf669d47bb7fd0e15ca2383835f546040516102cc939291906107ac565b60405180910390a15f54905092915050565b5f80fd5b5f819050919050565b6102f4816102e2565b81146102fe575f80fd5b50565b5f8135905061030f816102eb565b92915050565b5f806040838503121561032b5761032a6102de565b5b5f61033885828601610301565b925050602061034985828601610301565b9150509250929050565b61035c816102e2565b82525050565b5f6020820190506103755f830184610353565b92915050565b7f4e487b71000000000000000000000000000000000000000000000000000000005f52601160045260245ffd5b5f6103b2826102e2565b91506103bd836102e2565b92508282026103cb816102e2565b91507f800000000000000000000000000000000000000000000000000000000000000084145f841216156104025761040161037b565b5b82820584148315176104175761041661037b565b5b5092915050565b5f82825260208201905092915050565b7f6d756c7469706c790000000000000000000000000000000000000000000000005f82015250565b5f61046260088361041e565b915061046d8261042e565b602082019050919050565b5f6080820190508181035f83015261048f81610456565b905061049e6020830186610353565b6104ab6040830185610353565b6104b86060830184610353565b949350505050565b5f6104ca826102e2565b91506104d5836102e2565b92508282019050828112155f8312168382125f8412151617156104fb576104fa61037b565b5b92915050565b7f61646400000000000000000000000000000000000000000000000000000000005f82015250565b5f61053560038361041e565b915061054082610501565b602082019050919050565b5f6080820190508181035f83015261056281610529565b90506105716020830186610353565b61057e6040830185610353565b61058b6060830184610353565b949350505050565b5f61059d826102e2565b91506105a8836102e2565b925082820390508181125f8412168282135f8512151617156105cd576105cc61037b565b5b92915050565b7f73756274726163740000000000000000000000000000000000000000000000005f82015250565b5f61060760088361041e565b9150610612826105d3565b602082019050919050565b5f6080820190508181035f830152610634816105fb565b90506106436020830186610353565b6106506040830185610353565b61065d6060830184610353565b949350505050565b7f4469766973696f6e206279207a65726f206973206e6f7420616c6c6f776564005f82015250565b5f610699601f8361041e565b91506106a482610665565b602082019050919050565b5f6020820190508181035f8301526106c68161068d565b9050919050565b7f4e487b71000000000000000000000000000000000000000000000000000000005f52601260045260245ffd5b5f610704826102e2565b915061070f836102e2565b92508261071f5761071e6106cd565b5b60015f0383147f8000000000000000000000000000000000000000000000000000000000000000831416156107575761075661037b565b5b828205905092915050565b7f64697669646500000000000000000000000000000000000000000000000000005f82015250565b5f61079660068361041e565b91506107a182610762565b602082019050919050565b5f6080820190508181035f8301526107c38161078a565b90506107d26020830186610353565b6107df6040830185610353565b6107ec6060830184610353565b94935050505056fea2646970667358221220a2d42e7b53030ec2a3e2243614cae218c713e3a6bd4f715eacb3e19dd7efe1c864736f6c63430008150033",
  "immutableReferences": {},
  "source": "// SPDX-License-Identifier: MIT\npragma solidity ^0.8.0;\n\ncontract Calculator {\n    int256 public lastResult;\n\n    event Calculated(string operation, int256 a, int256 b, int256 result);\n\n    function add(int256 a, int256 b) public returns (int256) {\n        lastResult = a + b;\n        emit Calculated(\"add\", a, b, lastResult);\n        return lastResult;\n    }\n\n    function subtract(int256 a, int256 b) public returns (int256) {\n        lastResult = a - b;\n        emit Calculated(\"subtract\", a, b, lastResult);\n        return lastResult;\n    }\n\n    function multiply(int256 a, int256 b) public returns (int256) {\n        lastResult = a * b;\n        emit Calculated(\"multiply\", a, b, lastResult);\n        return lastResult;\n    }\n\n    function divide(int256 a, int256 b) public returns (int256) {\n        require(b != 0, \"Division by zero is not allowed\");\n        lastResult = a / b;\n        emit Calculated(\"divide\", a, b, lastResult);\n        return lastResult;\n    }\n}\n",
  "sourcePath": "C:\\Users\\mfura\\Documents\\templates\\Web3\\calculator\\contracts\\Calculator.sol",
  "compiler": {
    "name": "solc",
    "version": "0.8.21+commit.d9974bed.Emscripten.clang"
  },
  "schemaVersion": "3.4.16",
  "updatedAt": "2026-06-15T14:08:30.461Z",
  "networkType": "ethereum",
  "devdoc": {
    "kind": "dev",
    "methods": {},
    "version": 1
  },
  "userdoc": {
    "kind": "user",
    "methods": {},
    "version": 1
  }
}